{"abi":[{"type":"constructor","inputs":[{"name":"initialSupply","type":"uint256","internalType":"uint256"}],"stateMutability":"nonpayable"},{"type":"function","name":"balanceOf","inputs":[{"name":"","type":"address","internalType":"address"}],"outputs":[{"name":"","type":"uint256","internalType":"uint256"}],"stateMutability":"view"},{"type":"function","name":"decimals","inputs":[],"outputs":[{"name":"","type":"uint8","internalType":"uint8"}],"stateMutability":"view"},{"type":"function","name":"getBalance","inputs":[{"name":"account","type":"address","internalType":"address"}],"outputs":[{"name":"","type":"uint256","internalType":"uint256"}],"stateMutability":"view"},{"type":"function","name":"name","inputs":[],"outputs":[{"name":"","type":"string","internalType":"string"}],"stateMutability":"view"},{"type":"function","name":"symbol","inputs":[],"outputs":[{"name":"","type":"string","internalType":"string"}],"stateMutability":"view"},{"type":"function","name":"totalSupply","inputs":[],"outputs":[{"name":"","type":"uint256","internalType":"uint256"}],"stateMutability":"view"},{"type":"function","name":"transfer","inputs":[{"name":"from","type":"address","internalType":"address"},{"name":"to","type":"address","internalType":"address"},{"name":"value","type":"uint256","internalType":"uint256"}],"outputs":[{"name":"success","type":"bool","internalType":"bool"}],"stateMutability":"nonpayable"},{"type":"event","name":"Transfer","inputs":[{"name":"from","type":"address","indexed":true,"internalType":"address"},{"name":"to","type":"address","indexed":true,"internalType":"address"},{"name":"value","type":"uint256","indexed":false,"internalType":"uint256"}],"anonymous":false}],"bytecode":{"object":"0x60806040526040518060400160405280600981526020017f54657374546f6b656e00000000000000000000000000000000000000000000008152505f908161004791906103f2565b506040518060400160405280600381526020017f54544b00000000000000000000000000000000000000000000000000000000008152506001908161008c91906103f2565b50601260025f6101000a81548160ff021916908360ff1602179055503480156100b3575f5ffd5b5060405161106d38038061106d83398181016040528101906100d591906104ef565b60025f9054906101000a900460ff1660ff16600a6100f39190610676565b816100fe91906106c0565b60038190555060035460045f3373ffffffffffffffffffffffffffffffffffffffff1673ffffffffffffffffffffffffffffffffffffffff1681526020019081526020015f20819055503373ffffffffffffffffffffffffffffffffffffffff165f73ffffffffffffffffffffffffffffffffffffffff167fddf252ad1be2c89b69c2b068fc378daa952ba7f163c4a11628f55a4df523b3ef6003546040516101a79190610710565b60405180910390a350610729565b5f81519050919050565b7f4e487b71000000000000000000000000000000000000000000000000000000005f52604160045260245ffd5b7f4e487b71000000000000000000000000000000000000000000000000000000005f52602260045260245ffd5b5f600282049050600182168061023057607f821691505b602082108103610243576102426101ec565b5b50919050565b5f819050815f5260205f209050919050565b5f6020601f8301049050919050565b5f82821b905092915050565b5f600883026102a57fffffffffffffffffffffffffffffffffffffffffffffffffffffffffffffffff8261026a565b6102af868361026a565b95508019841693508086168417925050509392505050565b5f819050919050565b5f819050919050565b5f6102f36102ee6102e9846102c7565b6102d0565b6102c7565b9050919050565b5f819050919050565b61030c836102d9565b610320610318826102fa565b848454610276565b825550505050565b5f5f905090565b610337610328565b610342818484610303565b505050565b5b818110156103655761035a5f8261032f565b600181019050610348565b5050565b601f8211156103aa5761037b81610249565b6103848461025b565b81016020851015610393578190505b6103a761039f8561025b565b830182610347565b50505b505050565b5f82821c905092915050565b5f6103ca5f19846008026103af565b1980831691505092915050565b5f6103e283836103bb565b9150826002028217905092915050565b6103fb826101b5565b67ffffffffffffffff811115610414576104136101bf565b5b61041e8254610219565b610429828285610369565b5f60209050601f83116001811461045a575f8415610448578287015190505b61045285826103d7565b8655506104b9565b601f19841661046886610249565b5f5b8281101561048f5784890151825560018201915060208501945060208101905061046a565b868310156104ac57848901516104a8601f8916826103bb565b8355505b6001600288020188555050505b505050505050565b5f5ffd5b6104ce816102c7565b81146104d8575f5ffd5b50565b5f815190506104e9816104c5565b92915050565b5f60208284031215610504576105036104c1565b5b5f610511848285016104db565b91505092915050565b7f4e487b71000000000000000000000000000000000000000000000000000000005f52601160045260245ffd5b5f8160011c9050919050565b5f5f8291508390505b600185111561059c578086048111156105785761057761051a565b5b60018516156105875780820291505b808102905061059585610547565b945061055c565b94509492505050565b5f826105b4576001905061066f565b816105c1575f905061066f565b81600181146105d757600281146105e157610610565b600191505061066f565b60ff8411156105f3576105f261051a565b5b8360020a91508482111561060a5761060961051a565b5b5061066f565b5060208310610133831016604e8410600b84101617156106455782820a9050838111156106405761063f61051a565b5b61066f565b6106528484846001610553565b925090508184048111156106695761066861051a565b5b81810290505b9392505050565b5f610680826102c7565b915061068b836102c7565b92506106b87fffffffffffffffffffffffffffffffffffffffffffffffffffffffffffffffff84846105a5565b905092915050565b5f6106ca826102c7565b91506106d5836102c7565b92508282026106e3816102c7565b915082820484148315176106fa576106f961051a565b5b5092915050565b61070a816102c7565b82525050565b5f6020820190506107235f830184610701565b92915050565b610937806107365f395ff3fe608060405234801561000f575f5ffd5b506004361061007b575f3560e01c806370a082311161005957806370a08231146100d957806395d89b4114610109578063beabacc814610127578063f8b2cb4f146101575761007b565b806306fdde031461007f57806318160ddd1461009d578063313ce567146100bb575b5f5ffd5b610087610187565b6040516100949190610586565b60405180910390f35b6100a5610212565b6040516100b291906105be565b60405180910390f35b6100c3610218565b6040516100d091906105f2565b60405180910390f35b6100f360048036038101906100ee9190610669565b61022a565b60405161010091906105be565b60405180910390f35b61011161023f565b60405161011e9190610586565b60405180910390f35b610141600480360381019061013c91906106be565b6102cb565b60405161014e9190610728565b60405180910390f35b610171600480360381019061016c9190610669565b6104d0565b60405161017e91906105be565b60405180910390f35b5f80546101939061076e565b80601f01602080910402602001604051908101604052809291908181526020018280546101bf9061076e565b801561020a5780601f106101e15761010080835404028352916020019161020a565b820191905f5260205f20905b8154815290600101906020018083116101ed57829003601f168201915b505050505081565b60035481565b60025f9054906101000a900460ff1681565b6004602052805f5260405f205f915090505481565b6001805461024c9061076e565b80601f01602080910402602001604051908101604052809291908181526020018280546102789061076e565b80156102c35780601f1061029a576101008083540402835291602001916102c3565b820191905f5260205f20905b8154815290600101906020018083116102a657829003601f168201915b505050505081565b5f5f73ffffffffffffffffffffffffffffffffffffffff168373ffffffffffffffffffffffffffffffffffffffff160361033a576040517f08c379a0000000000000000000000000000000000000000000000000000000008152600401610331906107e8565b60405180910390fd5b8160045f8673ffffffffffffffffffffffffffffffffffffffff1673ffffffffffffffffffffffffffffffffffffffff1681526020019081526020015f205410156103ba576040517f08c379a00000000000000000000000000000000000000000000000000000000081526004016103b190610850565b60405180910390fd5b8160045f8673ffffffffffffffffffffffffffffffffffffffff1673ffffffffffffffffffffffffffffffffffffffff1681526020019081526020015f205f828254610406919061089b565b925050819055508160045f8573ffffffffffffffffffffffffffffffffffffffff1673ffffffffffffffffffffffffffffffffffffffff1681526020019081526020015f205f82825461045991906108ce565b925050819055508273ffffffffffffffffffffffffffffffffffffffff168473ffffffffffffffffffffffffffffffffffffffff167fddf252ad1be2c89b69c2b068fc378daa952ba7f163c4a11628f55a4df523b3ef846040516104bd91906105be565b60405180910390a3600190509392505050565b5f60045f8373ffffffffffffffffffffffffffffffffffffffff1673ffffffffffffffffffffffffffffffffffffffff1681526020019081526020015f20549050919050565b5f81519050919050565b5f82825260208201905092915050565b8281835e5f83830152505050565b5f601f19601f8301169050919050565b5f61055882610516565b6105628185610520565b9350610572818560208601610530565b61057b8161053e565b840191505092915050565b5f6020820190508181035f83015261059e818461054e565b905092915050565b5f819050919050565b6105b8816105a6565b82525050565b5f6020820190506105d15f8301846105af565b92915050565b5f60ff82169050919050565b6105ec816105d7565b82525050565b5f6020820190506106055f8301846105e3565b92915050565b5f5ffd5b5f73ffffffffffffffffffffffffffffffffffffffff82169050919050565b5f6106388261060f565b9050919050565b6106488161062e565b8114610652575f5ffd5b50565b5f813590506106638161063f565b92915050565b5f6020828403121561067e5761067d61060b565b5b5f61068b84828501610655565b91505092915050565b61069d816105a6565b81146106a7575f5ffd5b50565b5f813590506106b881610694565b92915050565b5f5f5f606084860312156106d5576106d461060b565b5b5f6106e286828701610655565b93505060206106f386828701610655565b9250506040610704868287016106aa565b9150509250925092565b5f8115159050919050565b6107228161070e565b82525050565b5f60208201905061073b5f830184610719565b92915050565b7f4e487b71000000000000000000000000000000000000000000000000000000005f52602260045260245ffd5b5f600282049050600182168061078557607f821691505b60208210810361079857610797610741565b5b50919050565b7f496e76616c6964206164647265737300000000000000000000000000000000005f82015250565b5f6107d2600f83610520565b91506107dd8261079e565b602082019050919050565b5f6020820190508181035f8301526107ff816107c6565b9050919050565b7f496e73756666696369656e742062616c616e63650000000000000000000000005f82015250565b5f61083a601483610520565b915061084582610806565b602082019050919050565b5f6020820190508181035f8301526108678161082e565b9050919050565b7f4e487b71000000000000000000000000000000000000000000000000000000005f52601160045260245ffd5b5f6108a5826105a6565b91506108b0836105a6565b92508282039050818111156108c8576108c761086e565b5b92915050565b5f6108d8826105a6565b91506108e3836105a6565b92508282019050808211156108fb576108fa61086e565b5b9291505056fea2646970667358221220727cec85ec4a01ca37ac3a8318a5cd033739b8151b0d025c9290832a86654f7664736f6c634300081c0033","linkReferences":{}},"methodIdentifiers":{"balanceOf(address)":"70a08231","decimals()":"313ce567","getBalance(address)":"f8b2cb4f","name()":"06fdde03","symbol()":"95d89b41","totalSupply()":"18160ddd","transfer(address,address,uint256)":"beabacc8"},"id":16}