{"abi":[{"type":"constructor","inputs":[{"name":"_name","type":"string","internalType":"string"},{"name":"_symbol","type":"string","internalType":"string"},{"name":"_dec","type":"uint8","internalType":"uint8"},{"name":"initialSupply","type":"uint256","internalType":"uint256"},{"name":"initialOwner","type":"address","internalType":"address"}],"stateMutability":"nonpayable"},{"type":"function","name":"balanceOf","inputs":[{"name":"","type":"address","internalType":"address"}],"outputs":[{"name":"","type":"uint256","internalType":"uint256"}],"stateMutability":"view"},{"type":"function","name":"burn","inputs":[{"name":"value","type":"uint256","internalType":"uint256"}],"outputs":[],"stateMutability":"nonpayable"},{"type":"function","name":"decimals","inputs":[],"outputs":[{"name":"","type":"uint8","internalType":"uint8"}],"stateMutability":"view"},{"type":"function","name":"getBalance","inputs":[{"name":"account","type":"address","internalType":"address"}],"outputs":[{"name":"","type":"uint256","internalType":"uint256"}],"stateMutability":"view"},{"type":"function","name":"mint","inputs":[{"name":"to","type":"address","internalType":"address"},{"name":"value","type":"uint256","internalType":"uint256"}],"outputs":[],"stateMutability":"nonpayable"},{"type":"function","name":"name","inputs":[],"outputs":[{"name":"","type":"string","internalType":"string"}],"stateMutability":"view"},{"type":"function","name":"owner","inputs":[],"outputs":[{"name":"","type":"address","internalType":"address"}],"stateMutability":"view"},{"type":"function","name":"symbol","inputs":[],"outputs":[{"name":"","type":"string","internalType":"string"}],"stateMutability":"view"},{"type":"function","name":"totalSupply","inputs":[],"outputs":[{"name":"","type":"uint256","internalType":"uint256"}],"stateMutability":"view"},{"type":"function","name":"transfer","inputs":[{"name":"from","type":"address","internalType":"address"},{"name":"to","type":"address","internalType":"address"},{"name":"value","type":"uint256","internalType":"uint256"}],"outputs":[{"name":"success","type":"bool","internalType":"bool"}],"stateMutability":"nonpayable"},{"type":"function","name":"transferOwnership","inputs":[{"name":"newOwner","type":"address","internalType":"address"}],"outputs":[],"stateMutability":"nonpayable"},{"type":"event","name":"Burn","inputs":[{"name":"from","type":"address","indexed":true,"internalType":"address"},{"name":"value","type":"uint256","indexed":false,"internalType":"uint256"}],"anonymous":false},{"type":"event","name":"Mint","inputs":[{"name":"to","type":"address","indexed":true,"internalType":"address"},{"name":"value","type":"uint256","indexed":false,"internalType":"uint256"}],"anonymous":false},{"type":"event","name":"OwnershipTransferred","inputs":[{"name":"previousOwner","type":"address","indexed":true,"internalType":"address"},{"name":"newOwner","type":"address","indexed":true,"internalType":"address"}],"anonymous":false},{"type":"event","name":"Transfer","inputs":[{"name":"from","type":"address","indexed":true,"internalType":"address"},{"name":"to","type":"address","indexed":true,"internalType":"address"},{"name":"value","type":"uint256","indexed":false,"internalType":"uint256"}],"anonymous":false}],"bytecode":{"object":"0x608060405234801561000f575f5ffd5b50604051611c2f380380611c2f83398181016040528101906100319190610459565b5f73ffffffffffffffffffffffffffffffffffffffff168173ffffffffffffffffffffffffffffffffffffffff160361009f576040517f08c379a000000000000000000000000000000000000000000000000000000000815260040161009690610562565b60405180910390fd5b845f90816100ad9190610787565b5083600190816100bd9190610787565b508260025f6101000a81548160ff021916908360ff1602179055508060045f6101000a81548173ffffffffffffffffffffffffffffffffffffffff021916908373ffffffffffffffffffffffffffffffffffffffff1602179055505f8360ff16600a61012991906109b2565b8361013491906109fc565b9050806003819055508060055f8473ffffffffffffffffffffffffffffffffffffffff1673ffffffffffffffffffffffffffffffffffffffff1681526020019081526020015f20819055508173ffffffffffffffffffffffffffffffffffffffff165f73ffffffffffffffffffffffffffffffffffffffff167fddf252ad1be2c89b69c2b068fc378daa952ba7f163c4a11628f55a4df523b3ef836040516101dc9190610a4c565b60405180910390a38173ffffffffffffffffffffffffffffffffffffffff165f73ffffffffffffffffffffffffffffffffffffffff167f8be0079c531659141344cd1fd0a4f28419497f9722a3daafe3b4186f6b6457e060405160405180910390a3505050505050610a65565b5f604051905090565b5f5ffd5b5f5ffd5b5f5ffd5b5f5ffd5b5f601f19601f8301169050919050565b7f4e487b71000000000000000000000000000000000000000000000000000000005f52604160045260245ffd5b6102a882610262565b810181811067ffffffffffffffff821117156102c7576102c6610272565b5b80604052505050565b5f6102d9610249565b90506102e5828261029f565b919050565b5f67ffffffffffffffff82111561030457610303610272565b5b61030d82610262565b9050602081019050919050565b8281835e5f83830152505050565b5f61033a610335846102ea565b6102d0565b9050828152602081018484840111156103565761035561025e565b5b61036184828561031a565b509392505050565b5f82601f83011261037d5761037c61025a565b5b815161038d848260208601610328565b91505092915050565b5f60ff82169050919050565b6103ab81610396565b81146103b5575f5ffd5b50565b5f815190506103c6816103a2565b92915050565b5f819050919050565b6103de816103cc565b81146103e8575f5ffd5b50565b5f815190506103f9816103d5565b92915050565b5f73ffffffffffffffffffffffffffffffffffffffff82169050919050565b5f610428826103ff565b9050919050565b6104388161041e565b8114610442575f5ffd5b50565b5f815190506104538161042f565b92915050565b5f5f5f5f5f60a0868803121561047257610471610252565b5b5f86015167ffffffffffffffff81111561048f5761048e610256565b5b61049b88828901610369565b955050602086015167ffffffffffffffff8111156104bc576104bb610256565b5b6104c888828901610369565b94505060406104d9888289016103b8565b93505060606104ea888289016103eb565b92505060806104fb88828901610445565b9150509295509295909350565b5f82825260208201905092915050565b7f6f776e65723d30000000000000000000000000000000000000000000000000005f82015250565b5f61054c600783610508565b915061055782610518565b602082019050919050565b5f6020820190508181035f83015261057981610540565b9050919050565b5f81519050919050565b7f4e487b71000000000000000000000000000000000000000000000000000000005f52602260045260245ffd5b5f60028204905060018216806105ce57607f821691505b6020821081036105e1576105e061058a565b5b50919050565b5f819050815f5260205f209050919050565b5f6020601f8301049050919050565b5f82821b905092915050565b5f600883026106437fffffffffffffffffffffffffffffffffffffffffffffffffffffffffffffffff82610608565b61064d8683610608565b95508019841693508086168417925050509392505050565b5f819050919050565b5f61068861068361067e846103cc565b610665565b6103cc565b9050919050565b5f819050919050565b6106a18361066e565b6106b56106ad8261068f565b848454610614565b825550505050565b5f5f905090565b6106cc6106bd565b6106d7818484610698565b505050565b5b818110156106fa576106ef5f826106c4565b6001810190506106dd565b5050565b601f82111561073f57610710816105e7565b610719846105f9565b81016020851015610728578190505b61073c610734856105f9565b8301826106dc565b50505b505050565b5f82821c905092915050565b5f61075f5f1984600802610744565b1980831691505092915050565b5f6107778383610750565b9150826002028217905092915050565b61079082610580565b67ffffffffffffffff8111156107a9576107a8610272565b5b6107b382546105b7565b6107be8282856106fe565b5f60209050601f8311600181146107ef575f84156107dd578287015190505b6107e7858261076c565b86555061084e565b601f1984166107fd866105e7565b5f5b82811015610824578489015182556001820191506020850194506020810190506107ff565b86831015610841578489015161083d601f891682610750565b8355505b6001600288020188555050505b505050505050565b7f4e487b71000000000000000000000000000000000000000000000000000000005f52601160045260245ffd5b5f8160011c9050919050565b5f5f8291508390505b60018511156108d8578086048111156108b4576108b3610856565b5b60018516156108c35780820291505b80810290506108d185610883565b9450610898565b94509492505050565b5f826108f057600190506109ab565b816108fd575f90506109ab565b8160018114610913576002811461091d5761094c565b60019150506109ab565b60ff84111561092f5761092e610856565b5b8360020a91508482111561094657610945610856565b5b506109ab565b5060208310610133831016604e8410600b84101617156109815782820a90508381111561097c5761097b610856565b5b6109ab565b61098e848484600161088f565b925090508184048111156109a5576109a4610856565b5b81810290505b9392505050565b5f6109bc826103cc565b91506109c7836103cc565b92506109f47fffffffffffffffffffffffffffffffffffffffffffffffffffffffffffffffff84846108e1565b905092915050565b5f610a06826103cc565b9150610a11836103cc565b9250828202610a1f816103cc565b91508282048414831517610a3657610a35610856565b5b5092915050565b610a46816103cc565b82525050565b5f602082019050610a5f5f830184610a3d565b92915050565b6111bd80610a725f395ff3fe608060405234801561000f575f5ffd5b50600436106100a7575f3560e01c806370a082311161006f57806370a082311461013d5780638da5cb5b1461016d57806395d89b411461018b578063beabacc8146101a9578063f2fde38b146101d9578063f8b2cb4f146101f5576100a7565b806306fdde03146100ab57806318160ddd146100c9578063313ce567146100e757806340c10f191461010557806342966c6814610121575b5f5ffd5b6100b3610225565b6040516100c09190610c0e565b60405180910390f35b6100d16102b0565b6040516100de9190610c46565b60405180910390f35b6100ef6102b6565b6040516100fc9190610c7a565b60405180910390f35b61011f600480360381019061011a9190610d1b565b6102c8565b005b61013b60048036038101906101369190610d59565b6104e7565b005b61015760048036038101906101529190610d84565b610676565b6040516101649190610c46565b60405180910390f35b61017561068b565b6040516101829190610dbe565b60405180910390f35b6101936106b0565b6040516101a09190610c0e565b60405180910390f35b6101c360048036038101906101be9190610dd7565b61073c565b6040516101d09190610e41565b60405180910390f35b6101f360048036038101906101ee9190610d84565b61099d565b005b61020f600480360381019061020a9190610d84565b610b58565b60405161021c9190610c46565b60405180910390f35b5f805461023190610e87565b80601f016020809104026020016040519081016040528092919081815260200182805461025d90610e87565b80156102a85780601f1061027f576101008083540402835291602001916102a8565b820191905f5260205f20905b81548152906001019060200180831161028b57829003601f168201915b505050505081565b60035481565b60025f9054906101000a900460ff1681565b60045f9054906101000a900473ffffffffffffffffffffffffffffffffffffffff1673ffffffffffffffffffffffffffffffffffffffff163373ffffffffffffffffffffffffffffffffffffffff1614610357576040517f08c379a000000000000000000000000000000000000000000000000000000000815260040161034e90610f01565b60405180910390fd5b5f73ffffffffffffffffffffffffffffffffffffffff168273ffffffffffffffffffffffffffffffffffffffff16036103c5576040517f08c379a00000000000000000000000000000000000000000000000000000000081526004016103bc90610f69565b60405180910390fd5b8060035f8282546103d69190610fb4565b925050819055508060055f8473ffffffffffffffffffffffffffffffffffffffff1673ffffffffffffffffffffffffffffffffffffffff1681526020019081526020015f205f8282546104299190610fb4565b925050819055508173ffffffffffffffffffffffffffffffffffffffff167f0f6798a560793a54c3bcfe86a93cde1e73087d944c0ea20544137d4121396885826040516104769190610c46565b60405180910390a28173ffffffffffffffffffffffffffffffffffffffff165f73ffffffffffffffffffffffffffffffffffffffff167fddf252ad1be2c89b69c2b068fc378daa952ba7f163c4a11628f55a4df523b3ef836040516104db9190610c46565b60405180910390a35050565b8060055f3373ffffffffffffffffffffffffffffffffffffffff1673ffffffffffffffffffffffffffffffffffffffff1681526020019081526020015f20541015610567576040517f08c379a000000000000000000000000000000000000000000000000000000000815260040161055e90611031565b60405180910390fd5b8060055f3373ffffffffffffffffffffffffffffffffffffffff1673ffffffffffffffffffffffffffffffffffffffff1681526020019081526020015f205f82825403925050819055508060035f82825403925050819055503373ffffffffffffffffffffffffffffffffffffffff167fcc16f5dbb4873280815c1ee09dbd06736cffcc184412cf7a71a0fdb75d397ca5826040516106069190610c46565b60405180910390a25f73ffffffffffffffffffffffffffffffffffffffff163373ffffffffffffffffffffffffffffffffffffffff167fddf252ad1be2c89b69c2b068fc378daa952ba7f163c4a11628f55a4df523b3ef8360405161066b9190610c46565b60405180910390a350565b6005602052805f5260405f205f915090505481565b60045f9054906101000a900473ffffffffffffffffffffffffffffffffffffffff1681565b600180546106bd90610e87565b80601f01602080910402602001604051908101604052809291908181526020018280546106e990610e87565b80156107345780601f1061070b57610100808354040283529160200191610734565b820191905f5260205f20905b81548152906001019060200180831161071757829003601f168201915b505050505081565b5f8373ffffffffffffffffffffffffffffffffffffffff163373ffffffffffffffffffffffffffffffffffffffff16146107ab576040517f08c379a00000000000000000000000000000000000000000000000000000000081526004016107a290611099565b60405180910390fd5b5f73ffffffffffffffffffffffffffffffffffffffff168373ffffffffffffffffffffffffffffffffffffffff1603610819576040517f08c379a000000000000000000000000000000000000000000000000000000000815260040161081090611101565b60405180910390fd5b8160055f8673ffffffffffffffffffffffffffffffffffffffff1673ffffffffffffffffffffffffffffffffffffffff1681526020019081526020015f20541015610899576040517f08c379a000000000000000000000000000000000000000000000000000000000815260040161089090611031565b60405180910390fd5b8160055f8673ffffffffffffffffffffffffffffffffffffffff1673ffffffffffffffffffffffffffffffffffffffff1681526020019081526020015f205f82825403925050819055508160055f8573ffffffffffffffffffffffffffffffffffffffff1673ffffffffffffffffffffffffffffffffffffffff1681526020019081526020015f205f82825401925050819055508273ffffffffffffffffffffffffffffffffffffffff168473ffffffffffffffffffffffffffffffffffffffff167fddf252ad1be2c89b69c2b068fc378daa952ba7f163c4a11628f55a4df523b3ef8460405161098a9190610c46565b60405180910390a3600190509392505050565b60045f9054906101000a900473ffffffffffffffffffffffffffffffffffffffff1673ffffffffffffffffffffffffffffffffffffffff163373ffffffffffffffffffffffffffffffffffffffff1614610a2c576040517f08c379a0000000000000000000000000000000000000000000000000000000008152600401610a2390610f01565b60405180910390fd5b5f73ffffffffffffffffffffffffffffffffffffffff168173ffffffffffffffffffffffffffffffffffffffff1603610a9a576040517f08c379a0000000000000000000000000000000000000000000000000000000008152600401610a9190611169565b60405180910390fd5b8073ffffffffffffffffffffffffffffffffffffffff1660045f9054906101000a900473ffffffffffffffffffffffffffffffffffffffff1673ffffffffffffffffffffffffffffffffffffffff167f8be0079c531659141344cd1fd0a4f28419497f9722a3daafe3b4186f6b6457e060405160405180910390a38060045f6101000a81548173ffffffffffffffffffffffffffffffffffffffff021916908373ffffffffffffffffffffffffffffffffffffffff16021790555050565b5f60055f8373ffffffffffffffffffffffffffffffffffffffff1673ffffffffffffffffffffffffffffffffffffffff1681526020019081526020015f20549050919050565b5f81519050919050565b5f82825260208201905092915050565b8281835e5f83830152505050565b5f601f19601f8301169050919050565b5f610be082610b9e565b610bea8185610ba8565b9350610bfa818560208601610bb8565b610c0381610bc6565b840191505092915050565b5f6020820190508181035f830152610c268184610bd6565b905092915050565b5f819050919050565b610c4081610c2e565b82525050565b5f602082019050610c595f830184610c37565b92915050565b5f60ff82169050919050565b610c7481610c5f565b82525050565b5f602082019050610c8d5f830184610c6b565b92915050565b5f5ffd5b5f73ffffffffffffffffffffffffffffffffffffffff82169050919050565b5f610cc082610c97565b9050919050565b610cd081610cb6565b8114610cda575f5ffd5b50565b5f81359050610ceb81610cc7565b92915050565b610cfa81610c2e565b8114610d04575f5ffd5b50565b5f81359050610d1581610cf1565b92915050565b5f5f60408385031215610d3157610d30610c93565b5b5f610d3e85828601610cdd565b9250506020610d4f85828601610d07565b9150509250929050565b5f60208284031215610d6e57610d6d610c93565b5b5f610d7b84828501610d07565b91505092915050565b5f60208284031215610d9957610d98610c93565b5b5f610da684828501610cdd565b91505092915050565b610db881610cb6565b82525050565b5f602082019050610dd15f830184610daf565b92915050565b5f5f5f60608486031215610dee57610ded610c93565b5b5f610dfb86828701610cdd565b9350506020610e0c86828701610cdd565b9250506040610e1d86828701610d07565b9150509250925092565b5f8115159050919050565b610e3b81610e27565b82525050565b5f602082019050610e545f830184610e32565b92915050565b7f4e487b71000000000000000000000000000000000000000000000000000000005f52602260045260245ffd5b5f6002820490506001821680610e9e57607f821691505b602082108103610eb157610eb0610e5a565b5b50919050565b7f4f6e6c79206f776e6572000000000000000000000000000000000000000000005f82015250565b5f610eeb600a83610ba8565b9150610ef682610eb7565b602082019050919050565b5f6020820190508181035f830152610f1881610edf565b9050919050565b7f746f3d30000000000000000000000000000000000000000000000000000000005f82015250565b5f610f53600483610ba8565b9150610f5e82610f1f565b602082019050919050565b5f6020820190508181035f830152610f8081610f47565b9050919050565b7f4e487b71000000000000000000000000000000000000000000000000000000005f52601160045260245ffd5b5f610fbe82610c2e565b9150610fc983610c2e565b9250828201905080821115610fe157610fe0610f87565b5b92915050565b7f496e73756666696369656e742062616c616e63650000000000000000000000005f82015250565b5f61101b601483610ba8565b915061102682610fe7565b602082019050919050565b5f6020820190508181035f8301526110488161100f565b9050919050565b7f53656e64657220213d2066726f6d0000000000000000000000000000000000005f82015250565b5f611083600e83610ba8565b915061108e8261104f565b602082019050919050565b5f6020820190508181035f8301526110b081611077565b9050919050565b7f496e76616c6964206164647265737300000000000000000000000000000000005f82015250565b5f6110eb600f83610ba8565b91506110f6826110b7565b602082019050919050565b5f6020820190508181035f830152611118816110df565b9050919050565b7f6e65774f776e65723d30000000000000000000000000000000000000000000005f82015250565b5f611153600a83610ba8565b915061115e8261111f565b602082019050919050565b5f6020820190508181035f83015261118081611147565b905091905056fea264697066735822122070120bbc356896aa2fb753a1062b4ae7bda46ef7f0b91ef5e241525c9830e4cf64736f6c634300081c0033","linkReferences":{}},"methodIdentifiers":{"balanceOf(address)":"70a08231","burn(uint256)":"42966c68","decimals()":"313ce567","getBalance(address)":"f8b2cb4f","mint(address,uint256)":"40c10f19","name()":"06fdde03","owner()":"8da5cb5b","symbol()":"95d89b41","totalSupply()":"18160ddd","transfer(address,address,uint256)":"beabacc8","transferOwnership(address)":"f2fde38b"},"id":21}