{"abi":[{"type":"constructor","inputs":[{"name":"tokenAddress","type":"address","internalType":"address"}],"stateMutability":"nonpayable"},{"type":"function","name":"getStoredBalance","inputs":[],"outputs":[{"name":"","type":"uint256","internalType":"uint256"}],"stateMutability":"view"},{"type":"function","name":"itemPrice","inputs":[],"outputs":[{"name":"","type":"uint256","internalType":"uint256"}],"stateMutability":"view"},{"type":"function","name":"owner","inputs":[],"outputs":[{"name":"","type":"address","internalType":"address"}],"stateMutability":"view"},{"type":"function","name":"purchaseItem","inputs":[],"outputs":[],"stateMutability":"nonpayable"},{"type":"function","name":"storeTokens","inputs":[{"name":"amount","type":"uint256","internalType":"uint256"}],"outputs":[],"stateMutability":"nonpayable"},{"type":"function","name":"token","inputs":[],"outputs":[{"name":"","type":"address","internalType":"contract TestToken"}],"stateMutability":"view"},{"type":"event","name":"Purchase","inputs":[{"name":"buyer","type":"address","indexed":true,"internalType":"address"},{"name":"amount","type":"uint256","indexed":false,"internalType":"uint256"}],"anonymous":false}],"bytecode":{"object":"0x608060405268056bc75e2d6310000060025534801561001c575f5ffd5b506040516107ef3803806107ef833981810160405281019061003e91906100e1565b805f5f6101000a81548173ffffffffffffffffffffffffffffffffffffffff021916908373ffffffffffffffffffffffffffffffffffffffff1602179055505061010c565b5f5ffd5b5f73ffffffffffffffffffffffffffffffffffffffff82169050919050565b5f6100b082610087565b9050919050565b6100c0816100a6565b81146100ca575f5ffd5b50565b5f815190506100db816100b7565b92915050565b5f602082840312156100f6576100f5610083565b5b5f610103848285016100cd565b91505092915050565b6106d6806101195f395ff3fe608060405234801561000f575f5ffd5b5060043610610060575f3560e01c806311e963c5146100645780631e6be911146100805780638da5cb5b1461009e578063dac6db1c146100bc578063e0d0c4a6146100da578063fc0c546a146100e4575b5f5ffd5b61007e60048036038101906100799190610435565b610102565b005b6100886101e1565b604051610095919061046f565b60405180910390f35b6100a661027f565b6040516100b391906104c7565b60405180910390f35b6100c46102a4565b6040516100d1919061046f565b60405180910390f35b6100e26102aa565b005b6100ec6103da565b6040516100f9919061053b565b60405180910390f35b5f5f9054906101000a900473ffffffffffffffffffffffffffffffffffffffff1673ffffffffffffffffffffffffffffffffffffffff1663beabacc83330846040518463ffffffff1660e01b815260040161015f93929190610554565b6020604051808303815f875af115801561017b573d5f5f3e3d5ffd5b505050506040513d601f19601f8201168201806040525081019061019f91906105be565b6101de576040517f08c379a00000000000000000000000000000000000000000000000000000000081526004016101d590610643565b60405180910390fd5b50565b5f5f5f9054906101000a900473ffffffffffffffffffffffffffffffffffffffff1673ffffffffffffffffffffffffffffffffffffffff166370a08231306040518263ffffffff1660e01b815260040161023b91906104c7565b602060405180830381865afa158015610256573d5f5f3e3d5ffd5b505050506040513d601f19601f8201168201806040525081019061027a9190610675565b905090565b60015f9054906101000a900473ffffffffffffffffffffffffffffffffffffffff1681565b60025481565b5f5f9054906101000a900473ffffffffffffffffffffffffffffffffffffffff1673ffffffffffffffffffffffffffffffffffffffff1663beabacc833306002546040518463ffffffff1660e01b815260040161030993929190610554565b6020604051808303815f875af1158015610325573d5f5f3e3d5ffd5b505050506040513d601f19601f8201168201806040525081019061034991906105be565b610388576040517f08c379a000000000000000000000000000000000000000000000000000000000815260040161037f90610643565b60405180910390fd5b3373ffffffffffffffffffffffffffffffffffffffff167f2499a5330ab0979cc612135e7883ebc3cd5c9f7a8508f042540c34723348f6326002546040516103d0919061046f565b60405180910390a2565b5f5f9054906101000a900473ffffffffffffffffffffffffffffffffffffffff1681565b5f5ffd5b5f819050919050565b61041481610402565b811461041e575f5ffd5b50565b5f8135905061042f8161040b565b92915050565b5f6020828403121561044a576104496103fe565b5b5f61045784828501610421565b91505092915050565b61046981610402565b82525050565b5f6020820190506104825f830184610460565b92915050565b5f73ffffffffffffffffffffffffffffffffffffffff82169050919050565b5f6104b182610488565b9050919050565b6104c1816104a7565b82525050565b5f6020820190506104da5f8301846104b8565b92915050565b5f819050919050565b5f6105036104fe6104f984610488565b6104e0565b610488565b9050919050565b5f610514826104e9565b9050919050565b5f6105258261050a565b9050919050565b6105358161051b565b82525050565b5f60208201905061054e5f83018461052c565b92915050565b5f6060820190506105675f8301866104b8565b61057460208301856104b8565b6105816040830184610460565b949350505050565b5f8115159050919050565b61059d81610589565b81146105a7575f5ffd5b50565b5f815190506105b881610594565b92915050565b5f602082840312156105d3576105d26103fe565b5b5f6105e0848285016105aa565b91505092915050565b5f82825260208201905092915050565b7f5472616e73666572206661696c656400000000000000000000000000000000005f82015250565b5f61062d600f836105e9565b9150610638826105f9565b602082019050919050565b5f6020820190508181035f83015261065a81610621565b9050919050565b5f8151905061066f8161040b565b92915050565b5f6020828403121561068a576106896103fe565b5b5f61069784828501610661565b9150509291505056fea2646970667358221220b44ed2698b75718d2df3b6896079e58913da0e41acbfa569647ff92691defff364736f6c634300081c0033","linkReferences":{}},"methodIdentifiers":{"getStoredBalance()":"1e6be911","itemPrice()":"dac6db1c","owner()":"8da5cb5b","purchaseItem()":"e0d0c4a6","storeTokens(uint256)":"11e963c5","token()":"fc0c546a"},"id":17}