{"abi":[{"type":"constructor","inputs":[{"name":"tokenAddress","type":"address","internalType":"address"},{"name":"_owner","type":"address","internalType":"address"}],"stateMutability":"nonpayable"},{"type":"function","name":"getSpentInCurrentWindow","inputs":[{"name":"buyer","type":"address","internalType":"address"}],"outputs":[{"name":"spent","type":"uint256","internalType":"uint256"},{"name":"windowStart","type":"uint256","internalType":"uint256"}],"stateMutability":"view"},{"type":"function","name":"getStoredBalance","inputs":[],"outputs":[{"name":"","type":"uint256","internalType":"uint256"}],"stateMutability":"view"},{"type":"function","name":"itemPrice","inputs":[],"outputs":[{"name":"","type":"uint256","internalType":"uint256"}],"stateMutability":"view"},{"type":"function","name":"owner","inputs":[],"outputs":[{"name":"","type":"address","internalType":"address"}],"stateMutability":"view"},{"type":"function","name":"perAddressDailyLimit","inputs":[],"outputs":[{"name":"","type":"uint256","internalType":"uint256"}],"stateMutability":"view"},{"type":"function","name":"purchaseItem","inputs":[],"outputs":[],"stateMutability":"nonpayable"},{"type":"function","name":"setItemPrice","inputs":[{"name":"newPrice","type":"uint256","internalType":"uint256"}],"outputs":[],"stateMutability":"nonpayable"},{"type":"function","name":"setPerAddressDailyLimit","inputs":[{"name":"newLimit","type":"uint256","internalType":"uint256"}],"outputs":[],"stateMutability":"nonpayable"},{"type":"function","name":"storeTokens","inputs":[{"name":"amount","type":"uint256","internalType":"uint256"}],"outputs":[],"stateMutability":"nonpayable"},{"type":"function","name":"token","inputs":[],"outputs":[{"name":"","type":"address","internalType":"contract TestToken"}],"stateMutability":"view"},{"type":"function","name":"transferStoreOwnership","inputs":[{"name":"newOwner","type":"address","internalType":"address"}],"outputs":[],"stateMutability":"nonpayable"},{"type":"function","name":"withdraw","inputs":[{"name":"to","type":"address","internalType":"address"},{"name":"amount","type":"uint256","internalType":"uint256"}],"outputs":[],"stateMutability":"nonpayable"},{"type":"event","name":"ItemPriceChanged","inputs":[{"name":"previous","type":"uint256","indexed":false,"internalType":"uint256"},{"name":"current","type":"uint256","indexed":false,"internalType":"uint256"}],"anonymous":false},{"type":"event","name":"LimitChanged","inputs":[{"name":"previous","type":"uint256","indexed":false,"internalType":"uint256"},{"name":"current","type":"uint256","indexed":false,"internalType":"uint256"}],"anonymous":false},{"type":"event","name":"OwnerChanged","inputs":[{"name":"previous","type":"address","indexed":true,"internalType":"address"},{"name":"current","type":"address","indexed":true,"internalType":"address"}],"anonymous":false},{"type":"event","name":"Purchase","inputs":[{"name":"buyer","type":"address","indexed":true,"internalType":"address"},{"name":"amountPaid","type":"uint256","indexed":false,"internalType":"uint256"},{"name":"newSpentInWindow","type":"uint256","indexed":false,"internalType":"uint256"}],"anonymous":false},{"type":"event","name":"Withdraw","inputs":[{"name":"to","type":"address","indexed":true,"internalType":"address"},{"name":"amount","type":"uint256","indexed":false,"internalType":"uint256"}],"anonymous":false}],"bytecode":{"object":"0x608060405268056bc75e2d63100000600255681b1ae4d6e2ef500000600355348015610029575f5ffd5b506040516117a73803806117a7833981810160405281019061004b9190610265565b5f73ffffffffffffffffffffffffffffffffffffffff168273ffffffffffffffffffffffffffffffffffffffff16036100b9576040517f08c379a00000000000000000000000000000000000000000000000000000000081526004016100b0906102fd565b60405180910390fd5b5f73ffffffffffffffffffffffffffffffffffffffff168173ffffffffffffffffffffffffffffffffffffffff1603610127576040517f08c379a000000000000000000000000000000000000000000000000000000000815260040161011e90610365565b60405180910390fd5b815f5f6101000a81548173ffffffffffffffffffffffffffffffffffffffff021916908373ffffffffffffffffffffffffffffffffffffffff1602179055508060015f6101000a81548173ffffffffffffffffffffffffffffffffffffffff021916908373ffffffffffffffffffffffffffffffffffffffff1602179055508073ffffffffffffffffffffffffffffffffffffffff165f73ffffffffffffffffffffffffffffffffffffffff167fb532073b38c83145e3e5135377a08bf9aab55bc0fd7c1179cd4fb995d2a5159c60405160405180910390a35050610383565b5f5ffd5b5f73ffffffffffffffffffffffffffffffffffffffff82169050919050565b5f6102348261020b565b9050919050565b6102448161022a565b811461024e575f5ffd5b50565b5f8151905061025f8161023b565b92915050565b5f5f6040838503121561027b5761027a610207565b5b5f61028885828601610251565b925050602061029985828601610251565b9150509250929050565b5f82825260208201905092915050565b7f746f6b656e3d30000000000000000000000000000000000000000000000000005f82015250565b5f6102e76007836102a3565b91506102f2826102b3565b602082019050919050565b5f6020820190508181035f830152610314816102db565b9050919050565b7f6f776e65723d30000000000000000000000000000000000000000000000000005f82015250565b5f61034f6007836102a3565b915061035a8261031b565b602082019050919050565b5f6020820190508181035f83015261037c81610343565b9050919050565b611417806103905f395ff3fe608060405234801561000f575f5ffd5b50600436106100b2575f3560e01c8063d2b5e4891161006f578063d2b5e48914610177578063dac6db1c14610193578063e0d0c4a6146101b1578063f20c1eff146101bb578063f3fef3a3146101d9578063fc0c546a146101f5576100b2565b806311e963c5146100b65780631e6be911146100d25780638a66af36146100f05780638da5cb5b1461012157806398ca77951461013f578063c2250a991461015b575b5f5ffd5b6100d060048036038101906100cb9190610d4e565b610213565b005b6100da610339565b6040516100e79190610d88565b60405180910390f35b61010a60048036038101906101059190610dfb565b6103d7565b604051610118929190610e26565b60405180910390f35b6101296103f8565b6040516101369190610e5c565b60405180910390f35b61015960048036038101906101549190610d4e565b61041d565b005b61017560048036038101906101709190610dfb565b6104f1565b005b610191600480360381019061018c9190610d4e565b6106ac565b005b61019b610780565b6040516101a89190610d88565b60405180910390f35b6101b9610786565b005b6101c361092a565b6040516101d09190610d88565b60405180910390f35b6101f360048036038101906101ee9190610e75565b610930565b005b6101fd610b60565b60405161020a9190610f0e565b60405180910390f35b5f8111610255576040517f08c379a000000000000000000000000000000000000000000000000000000000815260040161024c90610f81565b60405180910390fd5b5f5f5f9054906101000a900473ffffffffffffffffffffffffffffffffffffffff1673ffffffffffffffffffffffffffffffffffffffff166323b872dd3330856040518463ffffffff1660e01b81526004016102b393929190610f9f565b6020604051808303815f875af11580156102cf573d5f5f3e3d5ffd5b505050506040513d601f19601f820116820180604052508101906102f39190611009565b905080610335576040517f08c379a000000000000000000000000000000000000000000000000000000000815260040161032c9061107e565b60405180910390fd5b5050565b5f5f5f9054906101000a900473ffffffffffffffffffffffffffffffffffffffff1673ffffffffffffffffffffffffffffffffffffffff166370a08231306040518263ffffffff1660e01b81526004016103939190610e5c565b602060405180830381865afa1580156103ae573d5f5f3e3d5ffd5b505050506040513d601f19601f820116820180604052508101906103d291906110b0565b905090565b5f5f5f6103e384610b84565b90508060200151815f01519250925050915091565b60015f9054906101000a900473ffffffffffffffffffffffffffffffffffffffff1681565b60015f9054906101000a900473ffffffffffffffffffffffffffffffffffffffff1673ffffffffffffffffffffffffffffffffffffffff163373ffffffffffffffffffffffffffffffffffffffff16146104ac576040517f08c379a00000000000000000000000000000000000000000000000000000000081526004016104a390611125565b60405180910390fd5b7f1618a3866b767418ae7947559daecb076acee968686ee34cf15fcec588698174600254826040516104df929190610e26565b60405180910390a18060028190555050565b60015f9054906101000a900473ffffffffffffffffffffffffffffffffffffffff1673ffffffffffffffffffffffffffffffffffffffff163373ffffffffffffffffffffffffffffffffffffffff1614610580576040517f08c379a000000000000000000000000000000000000000000000000000000000815260040161057790611125565b60405180910390fd5b5f73ffffffffffffffffffffffffffffffffffffffff168173ffffffffffffffffffffffffffffffffffffffff16036105ee576040517f08c379a00000000000000000000000000000000000000000000000000000000081526004016105e59061118d565b60405180910390fd5b8073ffffffffffffffffffffffffffffffffffffffff1660015f9054906101000a900473ffffffffffffffffffffffffffffffffffffffff1673ffffffffffffffffffffffffffffffffffffffff167fb532073b38c83145e3e5135377a08bf9aab55bc0fd7c1179cd4fb995d2a5159c60405160405180910390a38060015f6101000a81548173ffffffffffffffffffffffffffffffffffffffff021916908373ffffffffffffffffffffffffffffffffffffffff16021790555050565b60015f9054906101000a900473ffffffffffffffffffffffffffffffffffffffff1673ffffffffffffffffffffffffffffffffffffffff163373ffffffffffffffffffffffffffffffffffffffff161461073b576040517f08c379a000000000000000000000000000000000000000000000000000000000815260040161073290611125565b60405180910390fd5b7fb60cc7dc67f7eca3662ae255cd7c76bb80b4229692532f6af8851a2a119e6b856003548260405161076e929190610e26565b60405180910390a18060038190555050565b60025481565b61079233600254610c33565b5f5f5f9054906101000a900473ffffffffffffffffffffffffffffffffffffffff1673ffffffffffffffffffffffffffffffffffffffff166323b872dd33306002546040518463ffffffff1660e01b81526004016107f293929190610f9f565b6020604051808303815f875af115801561080e573d5f5f3e3d5ffd5b505050506040513d601f19601f820116820180604052508101906108329190611009565b905080610874576040517f08c379a000000000000000000000000000000000000000000000000000000000815260040161086b9061107e565b60405180910390fd5b5f60045f3373ffffffffffffffffffffffffffffffffffffffff1673ffffffffffffffffffffffffffffffffffffffff1681526020019081526020015f209050600254816001015f8282546108c991906111d8565b925050819055503373ffffffffffffffffffffffffffffffffffffffff167f12cb4648cf3058b17ceeb33e579f8b0bc269fe0843f3900b8e24b6c54871703c600254836001015460405161091e929190610e26565b60405180910390a25050565b60035481565b60015f9054906101000a900473ffffffffffffffffffffffffffffffffffffffff1673ffffffffffffffffffffffffffffffffffffffff163373ffffffffffffffffffffffffffffffffffffffff16146109bf576040517f08c379a00000000000000000000000000000000000000000000000000000000081526004016109b690611125565b60405180910390fd5b5f73ffffffffffffffffffffffffffffffffffffffff168273ffffffffffffffffffffffffffffffffffffffff1603610a2d576040517f08c379a0000000000000000000000000000000000000000000000000000000008152600401610a2490611255565b60405180910390fd5b5f5f5f9054906101000a900473ffffffffffffffffffffffffffffffffffffffff1673ffffffffffffffffffffffffffffffffffffffff1663beabacc83085856040518463ffffffff1660e01b8152600401610a8b93929190610f9f565b6020604051808303815f875af1158015610aa7573d5f5f3e3d5ffd5b505050506040513d601f19601f82011682018060405250810190610acb9190611009565b905080610b0d576040517f08c379a0000000000000000000000000000000000000000000000000000000008152600401610b04906112bd565b60405180910390fd5b8273ffffffffffffffffffffffffffffffffffffffff167f884edad9ce6fa2440d8a54cc123490eb96d2768479d49ff9c7366125a942436483604051610b539190610d88565b60405180910390a2505050565b5f5f9054906101000a900473ffffffffffffffffffffffffffffffffffffffff1681565b610b8c610cff565b60045f8373ffffffffffffffffffffffffffffffffffffffff1673ffffffffffffffffffffffffffffffffffffffff1681526020019081526020015f206040518060400160405290815f820154815260200160018201548152505090505f6201518042610bf99190611308565b90505f6201518082610c0b9190611338565b905080835f01511015610c2c5780835f0181815250505f8360200181815250505b5050919050565b5f610c3d83610b84565b9050600354828260200151610c5291906111d8565b1115610c93576040517f08c379a0000000000000000000000000000000000000000000000000000000008152600401610c8a906113c3565b60405180910390fd5b5f60045f8573ffffffffffffffffffffffffffffffffffffffff1673ffffffffffffffffffffffffffffffffffffffff1681526020019081526020015f209050815f0151815f015414610cf957815f0151815f0181905550816020015181600101819055505b50505050565b60405180604001604052805f81526020015f81525090565b5f5ffd5b5f819050919050565b610d2d81610d1b565b8114610d37575f5ffd5b50565b5f81359050610d4881610d24565b92915050565b5f60208284031215610d6357610d62610d17565b5b5f610d7084828501610d3a565b91505092915050565b610d8281610d1b565b82525050565b5f602082019050610d9b5f830184610d79565b92915050565b5f73ffffffffffffffffffffffffffffffffffffffff82169050919050565b5f610dca82610da1565b9050919050565b610dda81610dc0565b8114610de4575f5ffd5b50565b5f81359050610df581610dd1565b92915050565b5f60208284031215610e1057610e0f610d17565b5b5f610e1d84828501610de7565b91505092915050565b5f604082019050610e395f830185610d79565b610e466020830184610d79565b9392505050565b610e5681610dc0565b82525050565b5f602082019050610e6f5f830184610e4d565b92915050565b5f5f60408385031215610e8b57610e8a610d17565b5b5f610e9885828601610de7565b9250506020610ea985828601610d3a565b9150509250929050565b5f819050919050565b5f610ed6610ed1610ecc84610da1565b610eb3565b610da1565b9050919050565b5f610ee782610ebc565b9050919050565b5f610ef882610edd565b9050919050565b610f0881610eee565b82525050565b5f602082019050610f215f830184610eff565b92915050565b5f82825260208201905092915050565b7f616d6f756e743d300000000000000000000000000000000000000000000000005f82015250565b5f610f6b600883610f27565b9150610f7682610f37565b602082019050919050565b5f6020820190508181035f830152610f9881610f5f565b9050919050565b5f606082019050610fb25f830186610e4d565b610fbf6020830185610e4d565b610fcc6040830184610d79565b949350505050565b5f8115159050919050565b610fe881610fd4565b8114610ff2575f5ffd5b50565b5f8151905061100381610fdf565b92915050565b5f6020828403121561101e5761101d610d17565b5b5f61102b84828501610ff5565b91505092915050565b7f5472616e73666572206661696c656400000000000000000000000000000000005f82015250565b5f611068600f83610f27565b915061107382611034565b602082019050919050565b5f6020820190508181035f8301526110958161105c565b9050919050565b5f815190506110aa81610d24565b92915050565b5f602082840312156110c5576110c4610d17565b5b5f6110d28482850161109c565b91505092915050565b7f4f6e6c79206f776e6572000000000000000000000000000000000000000000005f82015250565b5f61110f600a83610f27565b915061111a826110db565b602082019050919050565b5f6020820190508181035f83015261113c81611103565b9050919050565b7f6e65774f776e65723d30000000000000000000000000000000000000000000005f82015250565b5f611177600a83610f27565b915061118282611143565b602082019050919050565b5f6020820190508181035f8301526111a48161116b565b9050919050565b7f4e487b71000000000000000000000000000000000000000000000000000000005f52601160045260245ffd5b5f6111e282610d1b565b91506111ed83610d1b565b9250828201905080821115611205576112046111ab565b5b92915050565b7f746f3d30000000000000000000000000000000000000000000000000000000005f82015250565b5f61123f600483610f27565b915061124a8261120b565b602082019050919050565b5f6020820190508181035f83015261126c81611233565b9050919050565b7f5769746864726177207472616e73666572206661696c656400000000000000005f82015250565b5f6112a7601883610f27565b91506112b282611273565b602082019050919050565b5f6020820190508181035f8301526112d48161129b565b9050919050565b7f4e487b71000000000000000000000000000000000000000000000000000000005f52601260045260245ffd5b5f61131282610d1b565b915061131d83610d1b565b92508261132d5761132c6112db565b5b828204905092915050565b5f61134282610d1b565b915061134d83610d1b565b925082820261135b81610d1b565b91508282048414831517611372576113716111ab565b5b5092915050565b7f4461696c79206c696d69742065786365656465640000000000000000000000005f82015250565b5f6113ad601483610f27565b91506113b882611379565b602082019050919050565b5f6020820190508181035f8301526113da816113a1565b905091905056fea2646970667358221220ab6af87ad44c42ea0c09f140010e92b6dad7e54af09510c574ab018c782a2a7864736f6c634300081c0033","linkReferences":{}},"methodIdentifiers":{"getSpentInCurrentWindow(address)":"8a66af36","getStoredBalance()":"1e6be911","itemPrice()":"dac6db1c","owner()":"8da5cb5b","perAddressDailyLimit()":"f20c1eff","purchaseItem()":"e0d0c4a6","setItemPrice(uint256)":"98ca7795","setPerAddressDailyLimit(uint256)":"d2b5e489","storeTokens(uint256)":"11e963c5","token()":"fc0c546a","transferStoreOwnership(address)":"c2250a99","withdraw(address,uint256)":"f3fef3a3"},"id":30}