{"abi":[{"type":"constructor","inputs":[{"name":"_owner","type":"address","internalType":"address"}],"stateMutability":"nonpayable"},{"type":"function","name":"allTokens","inputs":[{"name":"","type":"uint256","internalType":"uint256"}],"outputs":[{"name":"","type":"address","internalType":"address"}],"stateMutability":"view"},{"type":"function","name":"createToken","inputs":[{"name":"name","type":"string","internalType":"string"},{"name":"symbol","type":"string","internalType":"string"},{"name":"decimals","type":"uint8","internalType":"uint8"},{"name":"initialSupply","type":"uint256","internalType":"uint256"},{"name":"tokenOwner","type":"address","internalType":"address"}],"outputs":[{"name":"tokenAddr","type":"address","internalType":"address"}],"stateMutability":"nonpayable"},{"type":"function","name":"owner","inputs":[],"outputs":[{"name":"","type":"address","internalType":"address"}],"stateMutability":"view"},{"type":"function","name":"tokensCount","inputs":[],"outputs":[{"name":"","type":"uint256","internalType":"uint256"}],"stateMutability":"view"},{"type":"function","name":"transferFactoryOwnership","inputs":[{"name":"newOwner","type":"address","internalType":"address"}],"outputs":[],"stateMutability":"nonpayable"},{"type":"event","name":"OwnerChanged","inputs":[{"name":"previous","type":"address","indexed":true,"internalType":"address"},{"name":"current","type":"address","indexed":true,"internalType":"address"}],"anonymous":false},{"type":"event","name":"TokenCreated","inputs":[{"name":"token","type":"address","indexed":true,"internalType":"address"},{"name":"tokenOwner","type":"address","indexed":true,"internalType":"address"},{"name":"name","type":"string","indexed":false,"internalType":"string"},{"name":"symbol","type":"string","indexed":false,"internalType":"string"},{"name":"decimals","type":"uint8","indexed":false,"internalType":"uint8"},{"name":"initialSupply","type":"uint256","indexed":false,"internalType":"uint256"}],"anonymous":false}],"bytecode":{"object":"0x608060405234801561000f575f5ffd5b50604051612dd0380380612dd08339818101604052810190610031919061019c565b5f73ffffffffffffffffffffffffffffffffffffffff168173ffffffffffffffffffffffffffffffffffffffff160361009f576040517f08c379a000000000000000000000000000000000000000000000000000000000815260040161009690610221565b60405180910390fd5b805f5f6101000a81548173ffffffffffffffffffffffffffffffffffffffff021916908373ffffffffffffffffffffffffffffffffffffffff1602179055508073ffffffffffffffffffffffffffffffffffffffff165f73ffffffffffffffffffffffffffffffffffffffff167fb532073b38c83145e3e5135377a08bf9aab55bc0fd7c1179cd4fb995d2a5159c60405160405180910390a35061023f565b5f5ffd5b5f73ffffffffffffffffffffffffffffffffffffffff82169050919050565b5f61016b82610142565b9050919050565b61017b81610161565b8114610185575f5ffd5b50565b5f8151905061019681610172565b92915050565b5f602082840312156101b1576101b061013e565b5b5f6101be84828501610188565b91505092915050565b5f82825260208201905092915050565b7f6f776e65723d30000000000000000000000000000000000000000000000000005f82015250565b5f61020b6007836101c7565b9150610216826101d7565b602082019050919050565b5f6020820190508181035f830152610238816101ff565b9050919050565b612b848061024c5f395ff3fe608060405234801561000f575f5ffd5b5060043610610055575f3560e01c80635165749e14610059578063634282af146100895780638da5cb5b146100b95780639c5c5ce7146100d7578063a64ed8ba146100f3575b5f5ffd5b610073600480360381019061006e919061061a565b610111565b60405161008091906106e0565b60405180910390f35b6100a3600480360381019061009e91906106f9565b6102be565b6040516100b091906106e0565b60405180910390f35b6100c16102f9565b6040516100ce91906106e0565b60405180910390f35b6100f160048036038101906100ec9190610724565b61031d565b005b6100fb6104d5565b604051610108919061075e565b60405180910390f35b5f5f5f9054906101000a900473ffffffffffffffffffffffffffffffffffffffff1673ffffffffffffffffffffffffffffffffffffffff163373ffffffffffffffffffffffffffffffffffffffff16146101a0576040517f08c379a0000000000000000000000000000000000000000000000000000000008152600401610197906107d1565b60405180910390fd5b5f888888888888886040516101b4906104e1565b6101c49796959493929190610848565b604051809103905ff0801580156101dd573d5f5f3e3d5ffd5b509050809150600182908060018154018082558091505060019003905f5260205f20015f9091909190916101000a81548173ffffffffffffffffffffffffffffffffffffffff021916908373ffffffffffffffffffffffffffffffffffffffff1602179055508273ffffffffffffffffffffffffffffffffffffffff168273ffffffffffffffffffffffffffffffffffffffff167f6aba688e0d9fb13e49808a9f69e09384142cd46853e4ecfcf79aa7e4d63c18328b8b8b8b8b8b6040516102aa969594939291906108ab565b60405180910390a350979650505050505050565b600181815481106102cd575f80fd5b905f5260205f20015f915054906101000a900473ffffffffffffffffffffffffffffffffffffffff1681565b5f5f9054906101000a900473ffffffffffffffffffffffffffffffffffffffff1681565b5f5f9054906101000a900473ffffffffffffffffffffffffffffffffffffffff1673ffffffffffffffffffffffffffffffffffffffff163373ffffffffffffffffffffffffffffffffffffffff16146103ab576040517f08c379a00000000000000000000000000000000000000000000000000000000081526004016103a2906107d1565b60405180910390fd5b5f73ffffffffffffffffffffffffffffffffffffffff168173ffffffffffffffffffffffffffffffffffffffff1603610419576040517f08c379a00000000000000000000000000000000000000000000000000000000081526004016104109061094a565b60405180910390fd5b8073ffffffffffffffffffffffffffffffffffffffff165f5f9054906101000a900473ffffffffffffffffffffffffffffffffffffffff1673ffffffffffffffffffffffffffffffffffffffff167fb532073b38c83145e3e5135377a08bf9aab55bc0fd7c1179cd4fb995d2a5159c60405160405180910390a3805f5f6101000a81548173ffffffffffffffffffffffffffffffffffffffff021916908373ffffffffffffffffffffffffffffffffffffffff16021790555050565b5f600180549050905090565b6121e68061096983390190565b5f5ffd5b5f5ffd5b5f5ffd5b5f5ffd5b5f5ffd5b5f5f83601f840112610517576105166104f6565b5b8235905067ffffffffffffffff811115610534576105336104fa565b5b6020830191508360018202830111156105505761054f6104fe565b5b9250929050565b5f60ff82169050919050565b61056c81610557565b8114610576575f5ffd5b50565b5f8135905061058781610563565b92915050565b5f819050919050565b61059f8161058d565b81146105a9575f5ffd5b50565b5f813590506105ba81610596565b92915050565b5f73ffffffffffffffffffffffffffffffffffffffff82169050919050565b5f6105e9826105c0565b9050919050565b6105f9816105df565b8114610603575f5ffd5b50565b5f81359050610614816105f0565b92915050565b5f5f5f5f5f5f5f60a0888a031215610635576106346104ee565b5b5f88013567ffffffffffffffff811115610652576106516104f2565b5b61065e8a828b01610502565b9750975050602088013567ffffffffffffffff811115610681576106806104f2565b5b61068d8a828b01610502565b955095505060406106a08a828b01610579565b93505060606106b18a828b016105ac565b92505060806106c28a828b01610606565b91505092959891949750929550565b6106da816105df565b82525050565b5f6020820190506106f35f8301846106d1565b92915050565b5f6020828403121561070e5761070d6104ee565b5b5f61071b848285016105ac565b91505092915050565b5f60208284031215610739576107386104ee565b5b5f61074684828501610606565b91505092915050565b6107588161058d565b82525050565b5f6020820190506107715f83018461074f565b92915050565b5f82825260208201905092915050565b7f4f6e6c79206f776e6572000000000000000000000000000000000000000000005f82015250565b5f6107bb600a83610777565b91506107c682610787565b602082019050919050565b5f6020820190508181035f8301526107e8816107af565b9050919050565b828183375f83830152505050565b5f601f19601f8301169050919050565b5f6108188385610777565b93506108258385846107ef565b61082e836107fd565b840190509392505050565b61084281610557565b82525050565b5f60a0820190508181035f83015261086181898b61080d565b9050818103602083015261087681878961080d565b90506108856040830186610839565b610892606083018561074f565b61089f60808301846106d1565b98975050505050505050565b5f6080820190508181035f8301526108c481888a61080d565b905081810360208301526108d981868861080d565b90506108e86040830185610839565b6108f5606083018461074f565b979650505050505050565b7f6e65774f776e65723d30000000000000000000000000000000000000000000005f82015250565b5f610934600a83610777565b915061093f82610900565b602082019050919050565b5f6020820190508181035f83015261096181610928565b905091905056fe608060405234801561000f575f5ffd5b506040516121e63803806121e683398181016040528101906100319190610459565b5f73ffffffffffffffffffffffffffffffffffffffff168173ffffffffffffffffffffffffffffffffffffffff160361009f576040517f08c379a000000000000000000000000000000000000000000000000000000000815260040161009690610562565b60405180910390fd5b845f90816100ad9190610787565b5083600190816100bd9190610787565b508260025f6101000a81548160ff021916908360ff1602179055508060045f6101000a81548173ffffffffffffffffffffffffffffffffffffffff021916908373ffffffffffffffffffffffffffffffffffffffff1602179055505f8360ff16600a61012991906109b2565b8361013491906109fc565b9050806003819055508060055f8473ffffffffffffffffffffffffffffffffffffffff1673ffffffffffffffffffffffffffffffffffffffff1681526020019081526020015f20819055508173ffffffffffffffffffffffffffffffffffffffff165f73ffffffffffffffffffffffffffffffffffffffff167fddf252ad1be2c89b69c2b068fc378daa952ba7f163c4a11628f55a4df523b3ef836040516101dc9190610a4c565b60405180910390a38173ffffffffffffffffffffffffffffffffffffffff165f73ffffffffffffffffffffffffffffffffffffffff167f8be0079c531659141344cd1fd0a4f28419497f9722a3daafe3b4186f6b6457e060405160405180910390a3505050505050610a65565b5f604051905090565b5f5ffd5b5f5ffd5b5f5ffd5b5f5ffd5b5f601f19601f8301169050919050565b7f4e487b71000000000000000000000000000000000000000000000000000000005f52604160045260245ffd5b6102a882610262565b810181811067ffffffffffffffff821117156102c7576102c6610272565b5b80604052505050565b5f6102d9610249565b90506102e5828261029f565b919050565b5f67ffffffffffffffff82111561030457610303610272565b5b61030d82610262565b9050602081019050919050565b8281835e5f83830152505050565b5f61033a610335846102ea565b6102d0565b9050828152602081018484840111156103565761035561025e565b5b61036184828561031a565b509392505050565b5f82601f83011261037d5761037c61025a565b5b815161038d848260208601610328565b91505092915050565b5f60ff82169050919050565b6103ab81610396565b81146103b5575f5ffd5b50565b5f815190506103c6816103a2565b92915050565b5f819050919050565b6103de816103cc565b81146103e8575f5ffd5b50565b5f815190506103f9816103d5565b92915050565b5f73ffffffffffffffffffffffffffffffffffffffff82169050919050565b5f610428826103ff565b9050919050565b6104388161041e565b8114610442575f5ffd5b50565b5f815190506104538161042f565b92915050565b5f5f5f5f5f60a0868803121561047257610471610252565b5b5f86015167ffffffffffffffff81111561048f5761048e610256565b5b61049b88828901610369565b955050602086015167ffffffffffffffff8111156104bc576104bb610256565b5b6104c888828901610369565b94505060406104d9888289016103b8565b93505060606104ea888289016103eb565b92505060806104fb88828901610445565b9150509295509295909350565b5f82825260208201905092915050565b7f6f776e65723d30000000000000000000000000000000000000000000000000005f82015250565b5f61054c600783610508565b915061055782610518565b602082019050919050565b5f6020820190508181035f83015261057981610540565b9050919050565b5f81519050919050565b7f4e487b71000000000000000000000000000000000000000000000000000000005f52602260045260245ffd5b5f60028204905060018216806105ce57607f821691505b6020821081036105e1576105e061058a565b5b50919050565b5f819050815f5260205f209050919050565b5f6020601f8301049050919050565b5f82821b905092915050565b5f600883026106437fffffffffffffffffffffffffffffffffffffffffffffffffffffffffffffffff82610608565b61064d8683610608565b95508019841693508086168417925050509392505050565b5f819050919050565b5f61068861068361067e846103cc565b610665565b6103cc565b9050919050565b5f819050919050565b6106a18361066e565b6106b56106ad8261068f565b848454610614565b825550505050565b5f5f905090565b6106cc6106bd565b6106d7818484610698565b505050565b5b818110156106fa576106ef5f826106c4565b6001810190506106dd565b5050565b601f82111561073f57610710816105e7565b610719846105f9565b81016020851015610728578190505b61073c610734856105f9565b8301826106dc565b50505b505050565b5f82821c905092915050565b5f61075f5f1984600802610744565b1980831691505092915050565b5f6107778383610750565b9150826002028217905092915050565b61079082610580565b67ffffffffffffffff8111156107a9576107a8610272565b5b6107b382546105b7565b6107be8282856106fe565b5f60209050601f8311600181146107ef575f84156107dd578287015190505b6107e7858261076c565b86555061084e565b601f1984166107fd866105e7565b5f5b82811015610824578489015182556001820191506020850194506020810190506107ff565b86831015610841578489015161083d601f891682610750565b8355505b6001600288020188555050505b505050505050565b7f4e487b71000000000000000000000000000000000000000000000000000000005f52601160045260245ffd5b5f8160011c9050919050565b5f5f8291508390505b60018511156108d8578086048111156108b4576108b3610856565b5b60018516156108c35780820291505b80810290506108d185610883565b9450610898565b94509492505050565b5f826108f057600190506109ab565b816108fd575f90506109ab565b8160018114610913576002811461091d5761094c565b60019150506109ab565b60ff84111561092f5761092e610856565b5b8360020a91508482111561094657610945610856565b5b506109ab565b5060208310610133831016604e8410600b84101617156109815782820a90508381111561097c5761097b610856565b5b6109ab565b61098e848484600161088f565b925090508184048111156109a5576109a4610856565b5b81810290505b9392505050565b5f6109bc826103cc565b91506109c7836103cc565b92506109f47fffffffffffffffffffffffffffffffffffffffffffffffffffffffffffffffff84846108e1565b905092915050565b5f610a06826103cc565b9150610a11836103cc565b9250828202610a1f816103cc565b91508282048414831517610a3657610a35610856565b5b5092915050565b610a46816103cc565b82525050565b5f602082019050610a5f5f830184610a3d565b92915050565b61177480610a725f395ff3fe608060405234801561000f575f5ffd5b50600436106100e8575f3560e01c806370a082311161008a578063beabacc811610064578063beabacc81461024a578063dd62ed3e1461027a578063f2fde38b146102aa578063f8b2cb4f146102c6576100e8565b806370a08231146101de5780638da5cb5b1461020e57806395d89b411461022c576100e8565b806323b872dd116100c657806323b872dd14610158578063313ce5671461018857806340c10f19146101a657806342966c68146101c2576100e8565b806306fdde03146100ec578063095ea7b31461010a57806318160ddd1461013a575b5f5ffd5b6100f46102f6565b604051610101919061111f565b60405180910390f35b610124600480360381019061011f91906111d0565b610381565b6040516101319190611228565b60405180910390f35b61014261046e565b60405161014f9190611250565b60405180910390f35b610172600480360381019061016d9190611269565b610474565b60405161017f9190611228565b60405180910390f35b6101906107a7565b60405161019d91906112d4565b60405180910390f35b6101c060048036038101906101bb91906111d0565b6107b9565b005b6101dc60048036038101906101d791906112ed565b6109d8565b005b6101f860048036038101906101f39190611318565b610b67565b6040516102059190611250565b60405180910390f35b610216610b7c565b6040516102239190611352565b60405180910390f35b610234610ba1565b604051610241919061111f565b60405180910390f35b610264600480360381019061025f9190611269565b610c2d565b6040516102719190611228565b60405180910390f35b610294600480360381019061028f919061136b565b610e8e565b6040516102a19190611250565b60405180910390f35b6102c460048036038101906102bf9190611318565b610eae565b005b6102e060048036038101906102db9190611318565b611069565b6040516102ed9190611250565b60405180910390f35b5f8054610302906113d6565b80601f016020809104026020016040519081016040528092919081815260200182805461032e906113d6565b80156103795780601f1061035057610100808354040283529160200191610379565b820191905f5260205f20905b81548152906001019060200180831161035c57829003601f168201915b505050505081565b5f8160065f3373ffffffffffffffffffffffffffffffffffffffff1673ffffffffffffffffffffffffffffffffffffffff1681526020019081526020015f205f8573ffffffffffffffffffffffffffffffffffffffff1673ffffffffffffffffffffffffffffffffffffffff1681526020019081526020015f20819055508273ffffffffffffffffffffffffffffffffffffffff163373ffffffffffffffffffffffffffffffffffffffff167f8c5be1e5ebec7d5bd14f71427d1e84f3dd0314c0f7b2291e5b200ac8c7c3b9258460405161045c9190611250565b60405180910390a36001905092915050565b60035481565b5f5f73ffffffffffffffffffffffffffffffffffffffff168373ffffffffffffffffffffffffffffffffffffffff16036104e3576040517f08c379a00000000000000000000000000000000000000000000000000000000081526004016104da90611450565b60405180910390fd5b8160055f8673ffffffffffffffffffffffffffffffffffffffff1673ffffffffffffffffffffffffffffffffffffffff1681526020019081526020015f20541015610563576040517f08c379a000000000000000000000000000000000000000000000000000000000815260040161055a906114b8565b60405180910390fd5b8160065f8673ffffffffffffffffffffffffffffffffffffffff1673ffffffffffffffffffffffffffffffffffffffff1681526020019081526020015f205f3373ffffffffffffffffffffffffffffffffffffffff1673ffffffffffffffffffffffffffffffffffffffff1681526020019081526020015f2054101561061e576040517f08c379a000000000000000000000000000000000000000000000000000000000815260040161061590611520565b60405180910390fd5b8160065f8673ffffffffffffffffffffffffffffffffffffffff1673ffffffffffffffffffffffffffffffffffffffff1681526020019081526020015f205f3373ffffffffffffffffffffffffffffffffffffffff1673ffffffffffffffffffffffffffffffffffffffff1681526020019081526020015f205f82825403925050819055508160055f8673ffffffffffffffffffffffffffffffffffffffff1673ffffffffffffffffffffffffffffffffffffffff1681526020019081526020015f205f82825403925050819055508160055f8573ffffffffffffffffffffffffffffffffffffffff1673ffffffffffffffffffffffffffffffffffffffff1681526020019081526020015f205f82825401925050819055508273ffffffffffffffffffffffffffffffffffffffff168473ffffffffffffffffffffffffffffffffffffffff167fddf252ad1be2c89b69c2b068fc378daa952ba7f163c4a11628f55a4df523b3ef846040516107949190611250565b60405180910390a3600190509392505050565b60025f9054906101000a900460ff1681565b60045f9054906101000a900473ffffffffffffffffffffffffffffffffffffffff1673ffffffffffffffffffffffffffffffffffffffff163373ffffffffffffffffffffffffffffffffffffffff1614610848576040517f08c379a000000000000000000000000000000000000000000000000000000000815260040161083f90611588565b60405180910390fd5b5f73ffffffffffffffffffffffffffffffffffffffff168273ffffffffffffffffffffffffffffffffffffffff16036108b6576040517f08c379a00000000000000000000000000000000000000000000000000000000081526004016108ad906115f0565b60405180910390fd5b8060035f8282546108c7919061163b565b925050819055508060055f8473ffffffffffffffffffffffffffffffffffffffff1673ffffffffffffffffffffffffffffffffffffffff1681526020019081526020015f205f82825461091a919061163b565b925050819055508173ffffffffffffffffffffffffffffffffffffffff167f0f6798a560793a54c3bcfe86a93cde1e73087d944c0ea20544137d4121396885826040516109679190611250565b60405180910390a28173ffffffffffffffffffffffffffffffffffffffff165f73ffffffffffffffffffffffffffffffffffffffff167fddf252ad1be2c89b69c2b068fc378daa952ba7f163c4a11628f55a4df523b3ef836040516109cc9190611250565b60405180910390a35050565b8060055f3373ffffffffffffffffffffffffffffffffffffffff1673ffffffffffffffffffffffffffffffffffffffff1681526020019081526020015f20541015610a58576040517f08c379a0000000000000000000000000000000000000000000000000000000008152600401610a4f906114b8565b60405180910390fd5b8060055f3373ffffffffffffffffffffffffffffffffffffffff1673ffffffffffffffffffffffffffffffffffffffff1681526020019081526020015f205f82825403925050819055508060035f82825403925050819055503373ffffffffffffffffffffffffffffffffffffffff167fcc16f5dbb4873280815c1ee09dbd06736cffcc184412cf7a71a0fdb75d397ca582604051610af79190611250565b60405180910390a25f73ffffffffffffffffffffffffffffffffffffffff163373ffffffffffffffffffffffffffffffffffffffff167fddf252ad1be2c89b69c2b068fc378daa952ba7f163c4a11628f55a4df523b3ef83604051610b5c9190611250565b60405180910390a350565b6005602052805f5260405f205f915090505481565b60045f9054906101000a900473ffffffffffffffffffffffffffffffffffffffff1681565b60018054610bae906113d6565b80601f0160208091040260200160405190810160405280929190818152602001828054610bda906113d6565b8015610c255780601f10610bfc57610100808354040283529160200191610c25565b820191905f5260205f20905b815481529060010190602001808311610c0857829003601f168201915b505050505081565b5f8373ffffffffffffffffffffffffffffffffffffffff163373ffffffffffffffffffffffffffffffffffffffff1614610c9c576040517f08c379a0000000000000000000000000000000000000000000000000000000008152600401610c93906116b8565b60405180910390fd5b5f73ffffffffffffffffffffffffffffffffffffffff168373ffffffffffffffffffffffffffffffffffffffff1603610d0a576040517f08c379a0000000000000000000000000000000000000000000000000000000008152600401610d0190611450565b60405180910390fd5b8160055f8673ffffffffffffffffffffffffffffffffffffffff1673ffffffffffffffffffffffffffffffffffffffff1681526020019081526020015f20541015610d8a576040517f08c379a0000000000000000000000000000000000000000000000000000000008152600401610d81906114b8565b60405180910390fd5b8160055f8673ffffffffffffffffffffffffffffffffffffffff1673ffffffffffffffffffffffffffffffffffffffff1681526020019081526020015f205f82825403925050819055508160055f8573ffffffffffffffffffffffffffffffffffffffff1673ffffffffffffffffffffffffffffffffffffffff1681526020019081526020015f205f82825401925050819055508273ffffffffffffffffffffffffffffffffffffffff168473ffffffffffffffffffffffffffffffffffffffff167fddf252ad1be2c89b69c2b068fc378daa952ba7f163c4a11628f55a4df523b3ef84604051610e7b9190611250565b60405180910390a3600190509392505050565b6006602052815f5260405f20602052805f5260405f205f91509150505481565b60045f9054906101000a900473ffffffffffffffffffffffffffffffffffffffff1673ffffffffffffffffffffffffffffffffffffffff163373ffffffffffffffffffffffffffffffffffffffff1614610f3d576040517f08c379a0000000000000000000000000000000000000000000000000000000008152600401610f3490611588565b60405180910390fd5b5f73ffffffffffffffffffffffffffffffffffffffff168173ffffffffffffffffffffffffffffffffffffffff1603610fab576040517f08c379a0000000000000000000000000000000000000000000000000000000008152600401610fa290611720565b60405180910390fd5b8073ffffffffffffffffffffffffffffffffffffffff1660045f9054906101000a900473ffffffffffffffffffffffffffffffffffffffff1673ffffffffffffffffffffffffffffffffffffffff167f8be0079c531659141344cd1fd0a4f28419497f9722a3daafe3b4186f6b6457e060405160405180910390a38060045f6101000a81548173ffffffffffffffffffffffffffffffffffffffff021916908373ffffffffffffffffffffffffffffffffffffffff16021790555050565b5f60055f8373ffffffffffffffffffffffffffffffffffffffff1673ffffffffffffffffffffffffffffffffffffffff1681526020019081526020015f20549050919050565b5f81519050919050565b5f82825260208201905092915050565b8281835e5f83830152505050565b5f601f19601f8301169050919050565b5f6110f1826110af565b6110fb81856110b9565b935061110b8185602086016110c9565b611114816110d7565b840191505092915050565b5f6020820190508181035f83015261113781846110e7565b905092915050565b5f5ffd5b5f73ffffffffffffffffffffffffffffffffffffffff82169050919050565b5f61116c82611143565b9050919050565b61117c81611162565b8114611186575f5ffd5b50565b5f8135905061119781611173565b92915050565b5f819050919050565b6111af8161119d565b81146111b9575f5ffd5b50565b5f813590506111ca816111a6565b92915050565b5f5f604083850312156111e6576111e561113f565b5b5f6111f385828601611189565b9250506020611204858286016111bc565b9150509250929050565b5f8115159050919050565b6112228161120e565b82525050565b5f60208201905061123b5f830184611219565b92915050565b61124a8161119d565b82525050565b5f6020820190506112635f830184611241565b92915050565b5f5f5f606084860312156112805761127f61113f565b5b5f61128d86828701611189565b935050602061129e86828701611189565b92505060406112af868287016111bc565b9150509250925092565b5f60ff82169050919050565b6112ce816112b9565b82525050565b5f6020820190506112e75f8301846112c5565b92915050565b5f602082840312156113025761130161113f565b5b5f61130f848285016111bc565b91505092915050565b5f6020828403121561132d5761132c61113f565b5b5f61133a84828501611189565b91505092915050565b61134c81611162565b82525050565b5f6020820190506113655f830184611343565b92915050565b5f5f604083850312156113815761138061113f565b5b5f61138e85828601611189565b925050602061139f85828601611189565b9150509250929050565b7f4e487b71000000000000000000000000000000000000000000000000000000005f52602260045260245ffd5b5f60028204905060018216806113ed57607f821691505b602082108103611400576113ff6113a9565b5b50919050565b7f496e76616c6964206164647265737300000000000000000000000000000000005f82015250565b5f61143a600f836110b9565b915061144582611406565b602082019050919050565b5f6020820190508181035f8301526114678161142e565b9050919050565b7f496e73756666696369656e742062616c616e63650000000000000000000000005f82015250565b5f6114a26014836110b9565b91506114ad8261146e565b602082019050919050565b5f6020820190508181035f8301526114cf81611496565b9050919050565b7f496e73756666696369656e7420616c6c6f77616e6365000000000000000000005f82015250565b5f61150a6016836110b9565b9150611515826114d6565b602082019050919050565b5f6020820190508181035f830152611537816114fe565b9050919050565b7f4f6e6c79206f776e6572000000000000000000000000000000000000000000005f82015250565b5f611572600a836110b9565b915061157d8261153e565b602082019050919050565b5f6020820190508181035f83015261159f81611566565b9050919050565b7f746f3d30000000000000000000000000000000000000000000000000000000005f82015250565b5f6115da6004836110b9565b91506115e5826115a6565b602082019050919050565b5f6020820190508181035f830152611607816115ce565b9050919050565b7f4e487b71000000000000000000000000000000000000000000000000000000005f52601160045260245ffd5b5f6116458261119d565b91506116508361119d565b92508282019050808211156116685761166761160e565b5b92915050565b7f53656e64657220213d2066726f6d0000000000000000000000000000000000005f82015250565b5f6116a2600e836110b9565b91506116ad8261166e565b602082019050919050565b5f6020820190508181035f8301526116cf81611696565b9050919050565b7f6e65774f776e65723d30000000000000000000000000000000000000000000005f82015250565b5f61170a600a836110b9565b9150611715826116d6565b602082019050919050565b5f6020820190508181035f830152611737816116fe565b905091905056fea264697066735822122085f49dd0064acec2e8b075a4ca157d9a1b65262d1ac730e9af75294c2129877c64736f6c634300081c0033a26469706673582212206a828c526f7cc4c7e86044b0aaffaffff6429124f035a7a1c822f477f79c1eb964736f6c634300081c0033","linkReferences":{}},"methodIdentifiers":{"allTokens(uint256)":"634282af","createToken(string,string,uint8,uint256,address)":"5165749e","owner()":"8da5cb5b","tokensCount()":"a64ed8ba","transferFactoryOwnership(address)":"9c5c5ce7"},"id":29}